:030000000208B241
:0C08B200787FE4F6D8FD75811B02071169
:1000030000140024004400840064001C0020001835
:10001300000F00E80008000800280018000800008E
:1000230000200010004C00430043002C002000106F
:10003300000C0003000600180030006000200000E0
:100043000040004100CE0004000000FC0004000258
:10005300000200FC00040004000400FC0000000097
:1000630000400020001F00200040004700420041E4
:100073000040005F00400042004400430040000095
:100083000040002000F0001C000700F200940094E0
:10009300009400FF00940094009400F40004000016
:1000A30000000000007F0000004000410022001417
:1000B300000C00130010003000200061002000003D
:1000C30000000000000000FE0022002200220022A7
:1000D30000FE002200220022002200FE0000000099
:1000E300008000400030000F000200020002000206
:1000F30000FF0002000200420082007F00000000B7
:100103000040004000FE00480048004800F8004F4F
:10011300000800C800780048005E00C0000000002E
:100123000000000000FF004400440044007F008002
:1001330000410030000F0010006100C000400000CB
:1001430000000000000000000000000100E2001CAD
:1001530000E00000000000000000000000000000BC
:100163000080004000200010000C0003000000008D
:1001730000000003000C0030004000C000400000FD
:10018300001000100090009000900090009000106C
:1001930000FF0010001200140010001800100000EF
:1001A3000000002000600020001F00100010000865
:1001B30000010006001800200040008000700000CD
:1001C3000002000200FE0012001200FE00020011F5
:1001D3000012001600F0001400120093000000004B
:1001E30000200020003F0011001100FF009100419A
:1001F3000021001900070019006100C1004100003F
:100203000000000000FF004900490049007F008012
:10021300007F00490049004900FF00000000000082
:1002230000400040007C00440044007E0045004440
:100233000044007C00450046007D00400040000073
:1002430000400040004200CC0000004000A0009F9E
:10025300008100810081009F00A000200020000099
:10026300000000000000007F00A000900040004359
:10027300002C001000280026004100C000400000B0
:1002830000400040004200CC00000040004000401D
:10029300004000FF004000400040006000400000BC
:1002A300000000000000007F002000100008000094
:1002B300000000FF0000000000000000000000003C
:1002C3000000000000800038007800C0000000003B
:1002D3000000001800F800000000004000180000B3
:1002E30000000038000300020002002F003C002041
:1002F300000000000001001F001C000100000000BE
:10030300000000F800F800080008008800700000F2
:1003130000000000000000000080006000180006DC
:100323000000003F003F00010003001E00300020DA
:10033300000000600038000E000100000000000013
:10034300000000F000F8008800C800880088000062
:1003530000000000001000F000F8000000000000A2
:10036300000000190039002000200031001F0006A2
:10037300000000000020003F003F0020002000009C
:100383000000003800F800C0000000C0007800083A
:100393000000003000380088008800F8007000007A
:1003A300000000000003003F003C000700000000C5
:1003B300000000180038002100210033001E000C4B
:1003C300008000820082008200FE008200820082A0
:1003D3000082008200FE0082008300C200800000D1
:1003E3000000008000400030000F0000000000000B
:1003F3000000000000FF00000000000000000000FB
:1004030000000010001800160010009000F0009F7C
:10041300009000900092009400100018001000005B
:100423000040002000900088004600410023001493
:100433000008001400220021004000C0004000001A
:1004430000000002002200220032002E00A20062FF
:1004530000220022009100090001000000000000BA
:100463000000000000420022001A00430082007EC8
:1004730000020002000A00130066000000000000F2
:100483000020003000AC00630030008800C800A8E2
:100493000099008E008800A800CC008800000000AE
:1004A3000022006700220012009200400030000F7B
:1004B30000000000003F00400040004100700000C9
:1004C300000000F800F800080008000800F800F039
:1004D30000F800FC008000C000C0008000000000A5
:1004E3000020003F003F0021000100010001000047
:1004F3000020003F003F002000000020003F0020BC
:1005030000000000000000000000000000000000E8
:1005130000000000001000F000F8000000000000E0
:1005230000000000000000000000000000000000C8
:10053300000000000020003F003F002000200000DA
:100543000000003000380088008800F800700000C8
:10055300000000F000F800080008001800F000E0B8
:10056300000000180038002100210033001E000C99
:1005730000000011003B00220022003B001F000787
:100583000000003800180008008800E80038000860
:10059300000000F000F800080008001800F000E078
:1005A300000000000000003E003F000000000000CB
:1005B30000000011003B00220022003B001F000747
:1005C3000000007000F800880088008800F8002010
:1005D30000000000001000F000F800000000000020
:1005E3000000001E0037002100210023001E000C24
:1005F300000000000020003F003F0020002000001A
:100603000000003000380088008800F80070000007
:100613000000003000380088008800F800700000F7
:10062300000000180038002100210033001E000CD8
:10063300000000180038002100210033001E000CC8
:100643000000003000380088008800F800700000C7
:100653000000007000780008000800D800F00020B7
:10066300000000180038002100210033001E000C98
:100673000000003000380034003200310038000838
:020831008D1A1E
:10083300751B01EF14600D14601024027010C2A325
:10084300C2A4800AC2A3D2A48004D2A3C2A4C2A118
:100853001208A31208A31208A31208A3C2A0D2A2CB
:0F0863001208A3851A801208A3C2A2D2A3D2A49E
:010872002263
:0207E9008D1A67
:1007EB00751B01EF14600D14601024027010C2A36E
:1007FB00C2A4800AC2A3D2A48004D2A3C2A41208AA
:10080B00A31208A31208A31208A31208A31208A389
:10081B00C2A0D2A1D2A21208A3851A801208A3C229
:05082B00A2D2A3D2A43B
:0108300022A5
:0E08A300E4FFFE0FBF00010EEF64024E70F581
:0108B1002224
:10087300E4F508E50824B8FDE4FF1208317D40E4FF
:10088300FF120831E4F509E4FDFF1207E90509E564
:0F08930009C3944040F10508E508C3940840D418
:0108A2002233
:080683008E108F118D128B13F4
:10068B00E4F5180512AF14120831AD13AF141208AC
:10069B0031E5152402FFE433FEC3E5189FEE6480B9
:1006AB00F8748098505FE4F517E517C39515503D26
:1006BB00E5167004F519802A7E00E5112517FFEE6B
:1006CB003510FE7C00EF2518FFEC3EFEEF25E0FF1A
:1006DB00EE33FE74032FF58274003EF583740193A1
:1006EB00F519AD19AF141207E9051780BCAD12054A
:1006FB0012AF14120831AD13AF14120831E51525E2
:05070B0018F518808CB8
:0107100022C6
:040792007D047F80E3
:060796008E088F098B0B99
:10079C00ED540FF50FEDC4540FF50EE4F50DE50D0A
:1007AC00C3950F5037E50D75F020A42509FFE5081A
:1007BC0035F0FEE50B540325E024B8FDE50D250EC0
:1007CC00C454F02440FBE50B1313543F04F514758B
:0C07DC001510850C16120683050D80C256
:0107E80022EE
:100711007D3EE4FF1208317DB8E4FF1208317D40CF
:10072100E4FF1208317DC0E4FF1208317D3FE4FF90
:10073100120831120873120873750C01E4FB7D0471
:10074100FFFE120796750C017B047E00120792755D
:100751000C017B017D047F007E01120796750C015F
:100761007B057E01120792750C017B027D037F00E0
:100771007E02120796750C017B037D047F607E0269
:10078100120796750C017B077D037FE07E0202074D
:0107910096D1
:00000001FF
