:040000000C94350027
:040024000C946A00CE
:14005400C0F9A4B0999282F8809001000000010203040506C0
:140068000708CFE5D4E0CDBFDEBFC051D0400AEA0883002420
:14007C00E6E7F0E010E0E637F10711F00192FBCF0083E4E524
:14009000F0E0A0E6B0E010E0EA36F10721F0C89531960D929A
:1400A400F9CF0E94AE00FFCF8FEF8BBB8ABB88BB87BB22248E
:1400B80025BA24BA22BA21BA0895222423BE82EC82BF8EE3DC
:1400CC008CBF83E083BF08952A928A939A93EA93FA932FB69E
:1400E0002A9282EC82BF20906A0028BA8EE690E0E0916D00E3
:1400F400FF27E80FF91F208020926C0080E690E0E22DFF27FA
:14010800E80FF91F208020926B002BBA80916D008F5F8093B3
:14011C006D0020906A00220C20926A00222031F481E0809323
:140130006A00222420926D0029902FBEF991E99199918991FE
:1401440029901895F894B0DFBADF222425BE2BBE81E089BFD2
:0801580078940895F5DF089585
:00000001FF
