:10000000020003758920758DFD758BFD7598505321
:1000100087EFD28E75A800755101309809C298E516
:1000200099F58012005512003B60EF12005D12003E
:100030003B60E785505112004580DFE4A29492E0D6
:10004000F55065512220940C900068E493600511EE
:1000500055A380F722F5993099FDC299227F0F7E32
:10006000E80000DEFCDFF82277656C636F6D6521C8
:10007000207777772E77696C6C61722E636F6D0ACB
:020080000D0071
:00000001FF
