:100000008000758160740078207910F608D9FC9121
:100010001531EF31C33000083161511C314C80067D
:100020003192314C80FE31C33000F574CC514374B1
:1000300044514331C374CC514374BE5143515B515D
:1000400080719B71CF3110114B80DB20941591A4EE
:100050003094FD9003197401914851FB2096FD9155
:10006000A4801520951691A43095FD90010074018F
:100070009148117D31EF510F3161314C2251FB20FC
:10008000940791A43094FDB201200102803720959D
:100090001491A40527E527B4780375270051FB7D4B
:1000A0000A91B780E920961491A40528E528B46345
:1000B0000375280051FB7D0A91B780E92097C09114
:1000C000A43097FD2220951391A41527E527B4FFAE
:1000D00002801E51FB7D0A91B780A420961791A43F
:1000E0001528E528B4FF02800851FB7D0A91B780EE
:1000F0008EB201809980C52290010074019148223E
:10010000524553455420414C45525420434F444599
:10011000E5279524400EE5249528401290014A31A8
:1001200036C293229001463136D29391A422900197
:1001300048313691A42274CE917B79007802E993FC
:10014000918809D8F9223E483C4C202174CB917B00
:1001500090015F79007802E993918809D8F922002B
:10016000439001707401914890018174029148227A
:1001700020202044533138423230204F4B20202061
:10018000002054454D503A202020202020202020BF
:1001900020009001A1740191489001B2740291482D
:1001A000222044533138423230204552524F52209F
:1001B00020002054454D503A202D2D2D2D2020205B
:1001C000202000D2B300C2B3786B7904D8FE786BDC
:1001D000D9FAD2B3000000783230B304D8FB8004DF
:1001E000D2008004C2008004786BD8FED2B32220F3
:1001F00000012231C374CC120243744E120243E553
:1002000027120243E528120243747F12024322316F
:10021000C374CC12024374481202432231C374CC1B
:1002200012024374B85143227440917B7A089002C1
:100230003B7B00EB9391880BDAF9220C12120C0035
:100240000000007A08C3C2B37B07DBFE1392B37BC6
:100250003CDBFED2B300DAEED2B3227C0479257AFD
:1002600008C2D7D2B30000C2B3000000D2B37B09EA
:10027000DBFEA2B37B3CDBFE13DAE6F709DCE0220F
:10028000E52654806011C3E525F42401F525E52613
:10029000F43400F526800375290AE529C4F529E51B
:1002A00025540F9002EB93F52AE52554F0C4F5256B
:0502B000E526540FC417
:1002B5004525F5241202DDF52554F0C44529F52917
:1002C500E525540FC4452AF52AEC600B540FC4FCF0
:1002D500E529540F4CF5292275F06484FC740AC590
:1002E500F084C445F0220000010102030304050562
:1002F50006060708080990032A7402914874C67116
:100305003BE527752F03714E74CE713BE528752F9C
:100315000C717B22204C4F4F4B20414C45525420B1
:10032500434F44450054483A202020202020544C77
:100335003A2020202000917B90034C79007802E937
:1003450093918809D8F922004375F064842430C05C
:10035500F0852FF09108D0F0740AC5F0842430059B
:100365002FC0F0852FF09108D0F0052FE5F0852FEF
:10037500F0243091082275F06484740AC5F0842451
:1003850030C0F0852FF09108D0F0052FE5F0852FCE
:10039500F02430910822E52A540FF570E52AC4545B
:1003A5000FF571E529540FF572E529C4540FF5735E
:1003B500E52954F0B410028010E529540F700AE5C0
:1003C50029C4540F75730AF57222E573752F06B4A7
:1003D500010280097420852FF091088002910005A3
:1003E5002FE5729100052FE5719100052F742E857B
:1003F5002FF09108E570052F9100222430852FF00C
:07040500910822C0E0E5F0C0
:10040C0024C0917BD0E0918822C2A2911C51282259
:10041C007438917B91C27438917B91C27438917B02
:10042C0091C2740C917B91C27401917B91C2227424
:10043C0080917B781874209188D8FA22B4010C74BE
:10044C0080917B916D7480917B800A74C0917B91BB
:10045C006D74C0917BE493B40001229188A380F564
:10046C0022781874209188D8FA227FFADFFE22F5C0
:10047C0080C2A0C2A1D2A291C2C2A222F580D2A0F7
:10048C00C2A1D2A29176C2A2917622C0E0E5F0245C
:10049C0080917BD0E09188227E6491B1B2B7DEFA74
:1004AC007D0A91B7227FB400DFFD227E327F64DFAC
:0F04BC00FEDEFADDF6227E197F64DFFEDEFA2215
:00000001FF
