:040000000C942C0030
:040024000C946200D6
:1400540000000000CFE5D4E0CDBFDEBFC051D0400AEA088367
:140068000024E4E6F0E010E0E436F10711F00192FBCF0083E3
:14007C00E4E5F0E0A0E6B0E010E0E835F10721F0C895319687
:140090000D92F9CF0E948600FFCF8FEF8BBB8FEB8ABB222436
:1400A40028BA27BA25BA24BA22BA21BA0895222423BE8DEAD6
:1400B80082BF83EC8CBF85E083BF08952A928A932FB62A927B
:1400CC008DEA82BF20906300222031F481E080936300D99AA4
:1400E000DC9A05C0222420926300D998DC9829902FBE8991D1
:1400F40029901895F894CFDFDADF222425BE2BBE81E089BFE4
:0801080078940895F5DF0895D5
:00000001FF
