:040000000C94470015
:040038000C949A008A
:01008C000172
:14008E00CFEFD0E1CDBFDEBFC051D0400AEA08830024E1E041
:1400A200F1E011E0E130F10711F00192FBCF0083ECE8F0E0FA
:1400B600A0E0B1E010E0ED38F10721F0C89531960D92F9CF7C
:1400CA000E94C500FFCF22242BBA2ABA28BA27BA25BA24BA5E
:1400DE0088E882BB8FEF81BB23B822B82092620020926100CB
:1400F2002092650020926400089522242EBC8BE08DBD8CEDD2
:140106008CBD84EF8BBD84E28ABD84EF89BD84E288BD84EF5D
:14011A008093790084E28093780084EF87BD84E286BD2FBC09
:14012E0083E08EBD08952A928A932FB62A928BE08DBD8CEDCA
:140142008CBD2090000122BA220C20920001222019F481E042
:140156008093000129902FBE899129901895F89422242CBE9F
:14016A0020926D00B0DFC5DF222425BE20926A002ABE29BE1B
:0E017E0084E087BF20927D0078940895ECCF36
:00000001FF
