:0300000002009C5F
:0C009C00787FE4F6D8FD75810A02006749
:100028007777772E6F7572656D6265642E636F6D75
:100038000054454C3A313339373938313333333258
:0100480000B7
:100067001200497BFF7A0079281200037FC0120033
:0C007700B87BFF7A00793912000380FE8C
:0800A80090BEFFE020E7F92201
:0800B00090BDFFEFF00200A873
:0800B80090BCFFEFF00200A86C
:100003008B088A09890AAB08AA09A90A1200836026
:1000130013050AE50A7002050914F9120083FF1299
:0500230000B080E222A4
:100049007F011200B87F381200B87F0F1200B87F05
:0E005900061200B87F011200B87F800200B8C6
:10008300BB010689828A83E0225002E722BBFE027B
:09009300E32289828A83E49322AE
:00000001FF
