:03000000020003F8
:10000300758109C2B4C2B3D2B5D2B6120067120069
:100013007AE4F509E5099000F293FDAF0912004572
:100023000509E509C3940840EB120071E4F509AF33
:100033000912005A8F8005095309077FFA1200E558
:0200430080ED4E
:100045008D08AD077F40120089AF081200BFC2B40A
:050055007F0A0200E536
:0D005A00AD077F801200891200D3C2B422CE
:0A0067007D60E4FF120089C2B4229C
:09007100E4FDFF120089C2B42273
:0F007A007D40E4FF1200897F1E1200E5C2B42210
:10008900C2B3D2B5D2B40000D2B30000C2B3EF33C9
:1000990092B5D2B333C2B392B5D2B30000C2B3EDB5
:1000A90033FDE4FFED3392B5D2B3ED33FDC2B30FA7
:0600B900BF07F1D2B522E1
:1000BF00E4FEEEEF3392B5D2B30000C2B30EBE082A
:0400CF00F3D2B52291
:1000D300E4FED2B30000C2B3A2B6330EBE08F3F5FA
:0200E3000722F2
:0D00E500EF60097EB9000000DEFBDFF722AE
:0800F2007EBDDBE7DBBD7EFFF4
:00000001FF
