:10000000020003120060740F1200EB740412009CD3
:10001000900104120050744112009C9000F51200EF
:100020005074C81200EB12008674C81200EB120064
:100030007B74C81200EB12008674C81200EB120029
:100040007B74C81200EB12009174011200EB80BBAC
:10005000E493600B1200BCA374C81200EB80F12281
:1000600074381200A274011200EB12007B740612A5
:1000700000A274011200EB12009122740C1200A273
:1000800074011200EB2274081200A274011200EB3A
:100090002274011200A274011200EB2244801200AB
:1000A000A2221200D6C2A0C2A1C2A20000F5800006
:1000B000000000D2A200000000C2A2221200D6D28C
:1000C000A0C2A1C2A20000F58000000000D2A200E0
:1000D000000000C2A222C2A0D2A1D2A20000000051
:1000E000A2870000C2A2000040EC22FF7EE80000D0
:1000F000DEFCDFF8227777772E77696C6C61722EE1
:0D010000636F6D0077656C636F6D652100A6
:00000001FF
