:1000030000020406080A0C0EC0F9A4B0999282F803
:0800130080908883C6A1868E4F
:0C014F000709000000000000FF0108008C
:03001B0002015C83
:09015C00758BB0758D3C0508326D
:1000AA0012012FE508D3940A404BE4F5080509E547
:1000BA0009D3940F4003E4F509050AE50AD3940F1E
:1000CA004003E4F50A050BE50BD3940F4003E4F56E
:1000DA000B050CE50CD3940F4003E4F50C050DE574
:1000EA000DD3940F4003E4F50D050EE50ED3940FDE
:0A00FA004003E4F50E12010480A992
:10012F00758BB0758D3C758910D28ED2ABD2AF2244
:10010400E4F51075900174092510F8E690000B933E
:1001140090EFFFF0E51090000393F5907F0A7E00C6
:0A01240012013F0510E510B406D9E2
:01012E0022AE
:0F013F00EF4E600B7D32DDFEEF1F70F41E80F17E
:01014E00228E
:0300000002001EDD
:0C001E00787FE4F6D8FD758110020065C3
:10002A000200AAE493A3F8E493A34003F68001F242
:10003A0008DFF48029E493A3F85407240CC8C333D7
:10004A00C4540F4420C8834004F456800146F6DFA6
:10005A00E4800B010204081020408090014FE47EE6
:10006A00019360BCA3FF543F30E509541FFEE4939B
:10007A00A360010ECF54C025E060A840B8E493A362
:10008A00FAE493A3F8E493A3C8C582C8CAC583CA8D
:10009A00F0A3C8C582C8CAC583CADFE9DEE780BE45
:01015B0000A3
:00000001FF
