:1002ED00C0F9A4B0999282F8809088004640868E1D
:1002FD00EEEDEBE7DEDDDBD7BEBDBBB77E7D7B77FD
:0A032E000810FFFFFFFFFFFFFFFFB5
:1001A900E4F518751EFE758901D2AFD2A9758CF9CF
:1001B900758A30D28C1202C83000FA12024F300010
:1001C900F412031FE50C7010F51A7410251AF8764D
:1001D900FF051AE51AB408F212024F1201FDEF9059
:1001E90002ED93FF7410250CF8A607050C530C07B4
:0401F900C20080C1FF
:03000B0002028D61
:10028D00C0E0C0D075D000C000C007C28C758CF91D
:10029D00758A3074102518F8E6F58005185318077F
:1002AD00851EA0AF1E7801EF08800123D8FDF51E35
:0B02BD00D28CD007D000D0D0D0E032AF
:1002C800750AF0850A9085900AE50A651960127F1B
:1002D8003212030DE50A6519600A850A19D200D39E
:0502E80022C200C32248
:10024F00850E0B7509FE850990AF908F098F08E514
:10025F000954F064F0600F53090FE59054F0F5085E
:10026F004509F50EFF22AF097801EF08800123D869
:0E027F00FDF509540FFFBF0FCDC200AF0B22DB
:0201FD008F2150
:1001FF0078227C007D007BFF7A0279FD7E007F10E4
:10020F001200DE753200753300753422E4F51DAB34
:10021F0032AA33A9341201046521601E051DD39043
:10022F000031E99582EA95834003AF0D22740125D1
:0F023F0034F534E43533F53380D5851D0DAF1D0F
:01024E00228D
:10030D00AD071FED600B7EFAEED3940040F21E8018
:01031D00F7E8
:01031E0022BC
:0F031F00750F96751CFAB2B7D51CFBD50FF522DA
:0300000002011DDD
:0C011D00787FE4F6D8FD7581340201649F
:10000E00E709F608DFFA8046E709F208DFFA803ED4
:10001E0088828C83E709F0A3DFFA8032E309F608C1
:10002E00DFFA8078E309F208DFFA807088828C8329
:10003E00E309F0A3DFFA806489828A83E0A3F608DD
:10004E00DFFA805889828A83E0A3F208DFFA804CB7
:10005E0080D280FA80C680D4806980F2803380108E
:10006E0080A680EA809A80A880DA80E280CA8033F7
:10007E0089828A83ECFAE493A3C8C582C8CCC5836F
:10008E00CCF0A3C8C582C8CCC583CCDFE9DEE7803F
:10009E000D89828A83E493A3F608DFF9ECFAA9F0BE
:1000AE00EDFB2289828A83ECFAE0A3C8C582C8CC14
:1000BE00C583CCF0A3C8C582C8CCC583CCDFEADE2D
:1000CE00E880DB89828A83E493A3F208DFF980CC8F
:1000DE0088F0EF60010E4E60C388F0ED2402B40488
:1000EE000050B9F582EB2402B4040050AF2323452F
:0600FE00822390005E73F6
:10010400BB010689828A83E0225002E722BBFE02F9
:09011400E32289828A83E493222C
:100129000201A9E493A3F8E493A34003F68001F242
:1001390008DFF48029E493A3F85407240CC8C333D7
:10014900C4540F4420C8834004F456800146F6DFA6
:10015900E4800B010204081020408090032EE47E05
:10016900019360BCA3FF543F30E509541FFEE4939B
:10017900A360010ECF54C025E060A840B8E493A362
:10018900FAE493A3F8E493A3C8C582C8CAC583CA8D
:10019900F0A3C8C582C8CAC583CADFE9DEE780BE45
:0103380000C4
:00000001FF
