:0B020B00C0F9A4B0999282F88090FF27
:10001D007580FF75A0FF758911758DDCE4F58B7505
:10002D008CFC758A17750D0CF50EF50BF50FE50D9E
:10003D0075F00A8490020B93F510E50D75F00A84A6
:10004D00E5F093F511E50E75F00A8493F513E50EC1
:10005D0075F00A84E5F093F514E50B75F00A8493B9
:10006D00F516E50B75F00A84E5F093F5177512BFDB
:10007D007515BF750AFEE4F50C75880175A88AD251
:10008D008CD28E75090331DE50FC7F0A31F931DED9
:09009D0050F4850809312980EDB9
:1001DE00E4F508A2B3334208E50825E0F508A2B21B
:0B01EE00E4334208E508650924FF2205
:10012900C2AFE50920E004315F8028E50920E12319
:10013900050EE50ED3943B4003E4F50EE50E75F08C
:100149000A8490020B93F513E50E75F00A84E5F025
:0601590093F514D2AF2261
:02000B0001EF03
:1000EF00C0E0C0D075D000C000C007758CFC758A09
:1000FF001775A0FF7410250CF8E6F580850AA0AFE0
:10010F000A7801EF08800123D8FDF50A050C530C7E
:0A011F0007D007D000D0D0D0E032A6
:02001B0001A63C
:1000A600C0E0C0F0C083C082C0D075D000C000C020
:1000B60001C002C003C004C005C006C007758DDCC0
:1000C600050FE50FC394644005750F003192D00704
:1000D600D006D005D004D003D002D001D000D0D0B5
:0900E600D082D083D0F0D0E032CA
:10019200050BE50BD3943B4005E4F50B31B8E50BB9
:1001A20075F00A8490020B93F516E50B75F00A843C
:0601B200E5F093F51722B1
:1001B800050EE50ED3943B4005E4F50E315FE50EE0
:1001C80075F00A8490020B93F513E50E75F00A8416
:0601D800E5F093F514228E
:10015F00050DE50DD394174003E4F50DE50DD3948C
:10016F0009400EE50D75F00A8490020B93F510808F
:10017F00037510FFE50D75F00A84E5F090020B93FF
:03018F00F5112245
:1001F900AD071FED600BE4FEEEC3947850F20E805C
:01020900F7FD
:01020A0022D1
:0300000002000DEE
:0C000D00787FE4F6D8FD75811702001D15
:00000001FF
