:0B016F00C0F9A4B0999282F88090FFC4
:100073007580FF75A0FF758911758DDCE4F58B75AF
:100083008CFC758A1712013A750A7FE4F50BF51497
:1000930075090175A88AD28CC28E12016050FB7F4C
:1000A3000A12014E12016050F185080912011C80E9
:0100B300E963
:10013A00E4F50CF50DF50EF50FF510F511F512F5C0
:04014A00130200EEAE
:0F016000E4F508A294334208E508650924FF225C
:10011C00E50920E0180514E514B40103D28E22E59C
:0E012C0014B40203C28E2212013AE4F514222A
:03000B000200B43C
:1000B400C0E0C0D075D000C000C007758CFC758A44
:1000C4001775A0FF7415250BF8E6F580850AA0AF17
:1000D4000A7801EF08800103D8FDF50A050B530BDC
:0A00E40007D007D000D0D0D0E032E2
:03001B0002001EC2
:10001E00C0E0C0F0C083C082C0D075D000C000C0A8
:0D002E0001C002C003C004C005C006C00729
:10003B00438DDCE4FF740C2FF806740C2FF8E6C329
:0D004B00940A400676000FBF08EB1200EE8D
:10005800D007D006D005D004D003D002D001D000FC
:0B006800D0D0D082D083D0F0D0E032A6
:1000EE00E50C90016F93F515E50D93F516E50E935E
:1000FE00547FF517E50F93F518E51093F519E511F3
:0E010E0093F51AE51293F51BE51393F51C22E9
:10014E00AD071FED600BE4FEEEC3947850F20E8007
:01015E00F7A9
:01015F00227D
:0300000002000EED
:0C000E00787FE4F6D8FD75811C020073B9
:00000001FF
