:040000000C94C2009A
:1400540000E010080810E000000F102020100F00001010F812
:14006800000000000020203F20200000007008080888700045
:14007C00003028242221300000300888884830000018202069
:1400900020110E000000C02010F8000000070424243F24007F
:1400A40000F80888880808000019212020110E0000E0108817
:1400B80088180000000F112020110E0000380808C8380800C5
:1400CC000000003F000000000070880808887000001C222182
:1400E00021221C0000E010080810E0000000312222110F0028
:1400F400000000000000000000303000000000001424448498
:14010800641C20180FE808082818080020104C43432C20107E
:14011C000C030618306020004041CE0400FC040202FC040497
:1401300004FC000040201F2040474241405F4042444340002A
:140144004020F01C07F2949494FF949494F4040000007F0054
:14015800404122140C13103020612000000000FE2222222256
:14016C00FE22222222FE00008040300F02020202FF020242AF
:14018000827F0000CFE5D4E0CDBFDEBFC051D0400AEA088339
:140194000024E0E6F0E010E0E036F10711F00192FBCF0083BE
:1401A800E4E8F1E0A0E6B0E011E0E438F10721F0C895319656
:1401BC000D92F9CF0E949801FFCF0E94E801442755270BC082
:1401D0006627772702C06F5F7F4F6A30E0E07E07D0F34F5F42
:1401E4005F4F4017510790F30E94CE0108950E94D101402F36
:1401F800DE98DD988FEF87BB48BBDC9A04E610E0DEDFDC98C4
:14020C000E94D40108950E94D101402FDE9ADD988FEF87BB3A
:1402200048BBDC9A04E610E0CEDFDC980E94D40108950E94A0
:14023400D101222427BADE9ADD9A00271127C1DFDC9A002732
:140248001127BDDFDC9846B3042F0E94D4010895DB9A04E6BB
:14025C0010E0B3DFD99A04E610E0AFDF00E3C3DF04E610E0D2
:14027000AADF00E3BEDF04E610E0A5DF0CE0B9DF04E610E0B5
:14028400A0DF01E0B4DF04E610E09BDF06E0AFDF04E610E0D1
:1402980096CF0E94E80144270DC0042F0854A5DF00E4A3DFB1
:1402AC00662703C00027AFDF63956034D8F34395483088F317
:1402C0000E94CE0108950E94E801B80101E091DF00E48FDF35
:1402D4004427552704C0062F9ADF4F5F5F4F4439E0E05E07BF
:1402E800C0F30E94CE0108950E94E801622F402F062F8BDF17
:1402FC0004E610E062DF042F86DF0E94CE0108958FEF8BBB69
:140310008ABB88BB87BB85BB84BB82BB81BB0895F894F4DF1B
:14032400222425BE2BBE29BE78940895F7DF92DF00E110E00B
:14033800C6DF03E210E0C3DF05E310E0C0DF88DF21EC00EAC0
:14034C00D1DF21EC00EACEDF2BEB06EBCBDF23ED0DEAC8DFEA
:1403600029EB02EEC5DF21EC09EDC2DF21EC00EABFDF21EC9B
:1403740000EABCDF21EC00EAB9DF27EC06EBB6DF28EC0BEEBB
:14038800B3DF2AEC0DEBB0DF21EC0AEAADDF23EC0BECAACF26
:14039C00E2E00C94D5015A934A930895E1E049915991E0FD4C
:1403B000089569917991E1FD0895A990B990E2FD0895C990C6
:1403C400D990E3FD0895E990F99008957A936A930C94D10124
:00000001FF
