:040000000C944B0011
:09008C0000010200030000000461
:14009600CFEFD0E1CDBFDEBFC051D0400AEA08830024E9E031
:1400AA00F1E011E0E930F10711F00192FBCF0083ECE8F0E0EA
:1400BE00A0E0B1E010E0E539F10721F0C89531960D92F9CF7B
:1400D2000E949300FFCF8FEF8BBB22242ABA88BB27BA25BA26
:1400E60084BB22BA81BB83B922B880936200209261008FE1A1
:1400FA0080936500209264000895F89422242CBE20926D00EC
:14010E00E4DF222425BE20926A002ABE29BE27BE20927D00F2
:1401220078940895EEDF08C002E01DD0002319F002E019D0C5
:14013600402F45BBF7CF08950E942C01442755270AC06627D6
:14014A0077276F5F7F4F6436E0E07E07D4F34F5F5F4F40170E
:14015E0051079CF30E940F0108951A930A930E943801229779
:14017200002411241982088241E050E044278FEF81BB30C095
:140186009A012C5F3F4F01E010E00E943C0102BB60B3772793
:14019A006F70707001E010E0CDDF80B399278F7090706C01B6
:1401AE0001E010E0C5DF80B399278F7090705C017601E822F8
:1401C200F922EE2011F4FF2059F004E010E09A010E94FF0083
:1401D600980187010E943C01198308834F5F5F4F2C8433248B
:1401EA004215530558F20881198122960E9412012296089523
:1401FE000A921A928A939A93029FC001129F900D039F900D6C
:140212008C0199918991199009900895E2E00C941901EE2797
:140226000C9419015A934A930895E1E049915991E0FD0895A4
:14023A0069917991E1FD0895A990B990E2FD0895C990D99071
:14024E00E3FD0895E990F99008957A936A930C941501BA9274
:14026200AA920C942C01DA92CA920C943001FA92EA920C943E
:100276003401222321F0000F111F2A95FACF089589
:00000001FF
