:1001250000020406080A0C0EC0F9A4B0999282F8E0
:0801350080908883C6A1868E2C
:0D015D00070A000000000000FF020800007B
:03000B0002016B84
:0D016B00C0E00509E50970020508D0E0328A
:10009A0012013DD3E5099488E5089413404DE4F52F
:1000AA0008F509050AE50AD3940F4003E4F50A05A1
:1000BA000BE50BD3940F4003E4F50B050CE50CD3C9
:1000CA00940F4003E4F50C050DE50DD3940F40039E
:1000DA00E4F50D050EE50ED3940F4003E4F50E0585
:1000EA000FE50FD3940F4003E4F50F1200FA80A333
:10013D00758A38758C38758902D28CD2A9D2AF22C6
:1000FA00E4F511759001740A2511F8E690012D9323
:10010A0090EFFFF0E51190012593F5907F0A7E00AC
:0A011A0012014D0511E511B406D9DC
:0101240022B8
:0F014D00EF4E600B7D32DDFEEF1F70F41E80F170
:01015C002280
:0300000002000EED
:0C000E00787FE4F6D8FD758111020055E2
:10001A0002009AE493A3F8E493A34003F68001F262
:10002A0008DFF48029E493A3F85407240CC8C333E7
:10003A00C4540F4420C8834004F456800146F6DFB6
:10004A00E4800B010204081020408090015DE47EE8
:10005A00019360BCA3FF543F30E509541FFEE493AB
:10006A00A360010ECF54C025E060A840B8E493A372
:10007A00FAE493A3F8E493A3C8C582C8CAC583CA9D
:10008A00F0A3C8C582C8CAC583CADFE9DEE780BE55
:01016A000094
:00000001FF
