:0300000002000EED
:03000B0002005799
:10000E007581117580FF75A0FF758901758CFC7562
:10001E008A1775A882900082740193F50A74029370
:10002E00F50B740393F50C740493F50D740593F5A9
:10003E000E740693F50F740793F510740893F5116B
:10004E007508FEF509D28C80FEC0E0C0D0C00075E8
:10005E008CFC758A1775A0FF740A2509F8E6F580E1
:10006E008508A0E50823F5080509530907D000D037
:04007E00D0D0E032CC
:0B008200C0F9A4B0999282F88090FFB2
:00000001FF
