:100000001CC035C034C033C032C031C0DFC02FC0C7
:100010002EC02DC02CC02BC02AC029C028C027C08C
:1000200026C07FBFDFEFF7FBFDFEC0F9A4B09992B9
:1000300082F880908883C6A1868E11241FBECFE5EA
:10004000D2E0DEBFCDBF10E0A0E6B0E0EEE4F2E02B
:1000500002C005900D92A036B107D9F710E0A0E6D6
:10006000B0E001C01D92A037B107E1F727C0C8CFAB
:10007000CF93DF9330E0C4E6D0E0E8E6F0E0DF01C4
:100080002991822F6AE0D7D09D933196822FD3D0C9
:10009000819311963F5F343098F3DF91CF910895AB
:1000A0001FBC81E08EBD8AE999EA9DBD8CBD88B7F1
:1000B000806888BF89B7806889BF0895CFE5D2E09E
:1000C000DEBFCDBF8FEF8BBB8ABB85BB84BB1092DD
:1000D00064008EE1809365008BE38093660087E186
:1000E00080936700C5DFDCDF78948091600088230F
:1000F000E1F310926000809164008F5F8093640050
:10010000843610F110926400809162008095809393
:100110006200809165008F5F809365008C33A0F052
:1001200010926500809166008F5F809366008C332B
:1001300058F010926600809167008F5F809367008F
:10014000883110F01092670093DFCFCF85E083BF36
:100150008AEE82BF88B7826088BF89B7826089BF14
:1001600008958FEF85BB80916100E82FFF27E85944
:10017000FF4F8081E82FFF27E65DFF4F84918BBB07
:1001800080916200882369F080916100823041F0A3
:1001900080916100843021F080916100863009F403
:1001A000DF9880916100E82FFF27EE5DFF4F84917B
:1001B00085BB809161008F5F8093610080916100B9
:1001C000883010F010926100089508951F920F92E8
:1001D0000FB60F9211242F933F934F935F936F931A
:1001E0007F938F939F93AF93BF93EF93FF938AE98E
:1001F00099EA9DBD8CBDB5DF809163008F5F8093D0
:10020000630080916300853028F081E08093600076
:1002100010926300FF91EF91BF91AF919F918F91E9
:100220007F916F915F914F913F912F910F900FBEF2
:100230000F901F901895991B79E004C0991F96178D
:0E02400008F0961B881F7A95C9F780950895DF
:00000001FF
