:020000000130CD
:02000B00016092
:1000300075815F7590FF7580FF75A0FF75890175EB
:100040008CF8758A30D28CD2AFD2A9755900755A06
:10005000007400F55B04120096B40AF774000153B3
:10006000C0E0C0D0758CF8758A30D2A7D2A6745A79
:100070002559F8E69000A993F580E5596004C2A6D9
:100080000184C2A70559E5591414600201917559FC
:1000900000D0D0D0E032C0D0D2D37FFF7EFF0000AE
:1000A0000000DEFADFF6D0D022287EA4647261213F
:0300B0007C206051
:00000001FF
