:040000000C946100FB
:14008C00303132333435363738397169616E207275207368A8
:1400A00069204C4D2120007777772E6F7572656D6265642ED5
:1400B400636F6D0000000000000000000000CFEFD0E1CDBFFE
:1400C800DEBFC051D0400AEA08830024ECE2F1E011E0EC3215
:1400DC00F10711F00192FBCF0083E6E9F0E0A0E0B1E010E097
:1400F000E23CF10721F0C89531960D92F9CF0E943D01FFCF9C
:1401040004E610E02CD0222708E338D004E110E026D02227C1
:1401180008E332D004E110E020D0222708E32CD004E110E01C
:14012C001AD021E008E326D021E008E023D021E001E020D045
:1401400021E006E01DD021E00CE01AD008950027112702C042
:140154000F5F1F4F0034E6E01E07D0F308950E946A01B80176
:140168004427552703C0EFDF4F5F5F4F46175707D0F30E948F
:14017C005E0108950E946A01622F402F662309F045D09598A2
:14019000969897980000979A45BB97980E945E0108950E945E
:1401A4006801422FA02E8A2D803118F0682F605502C06A2D8A
:1401B800605821E0062FE0DF042F1CD00E94610108950E9424
:1401CC0068015901402F842F8F708295482F66270AC0E62F41
:1401E000FF27EA0DFB1D2081242E4F5F022DD9DF63956031C5
:1401F400A0F30E94610108950E946C01402F0AD0959A96980E
:1402080097980000979A45BB97980E946F010895A798959838
:14021C00969A0000979A9F99FECF9798A79A08958FEF8BBB97
:140230008ABB88BB87BB85BB84BB82BB81BB83B982B980936E
:140244006200809361008FE1809365008FEF80936400089556
:14025800F89422242CBE20926D00E4DF222425BE20926A00AF
:14026C002ABE29BE27BE20927D0078940895EEDF43DF20E003
:1402800031E00027A2DF21E131E001E09EDF08950E946A0196
:14029400442755270BC06627772702C06F5F7F4F683EE3E0B2
:1402A8007E07D0F34F5F5F4F4017510790F30E945E010895CE
:1402BC00E2E00C947001E4E00C947001FA92EA92DA92CA92B6
:1402D000BA92AA927A936A935A934A930895E1E0499159919C
:1402E400E0FD089569917991E1FD0895A990B990E2FD08950F
:0E02F800C990D990E3FD0895E990F99008951A
:00000001FF
